{
  "_format": "hh-sol-artifact-1",
  "contractName": "StakingAndReward",
  "sourceName": "contracts/StakingAndReward.sol",
  "abi": [
    {
      "inputs": [],
      "stateMutability": "nonpayable",
      "type": "constructor"
    },
    {
      "anonymous": false,
      "inputs": [
        {
          "indexed": true,
          "internalType": "address",
          "name": "_owner",
          "type": "address"
        },
        {
          "indexed": true,
          "internalType": "address",
          "name": "_spender",
          "type": "address"
        },
        {
          "indexed": false,
          "internalType": "uint256",
          "name": "_value",
          "type": "uint256"
        }
      ],
      "name": "Approval",
      "type": "event"
    },
    {
      "anonymous": false,
      "inputs": [
        {
          "indexed": false,
          "internalType": "uint256",
          "name": "amount",
          "type": "uint256"
        }
      ],
      "name": "Bought",
      "type": "event"
    },
    {
      "anonymous": false,
      "inputs": [
        {
          "indexed": true,
          "internalType": "address",
          "name": "_from",
          "type": "address"
        },
        {
          "indexed": true,
          "internalType": "address",
          "name": "_to",
          "type": "address"
        }
      ],
      "name": "OwnershipTransferred",
      "type": "event"
    },
    {
      "anonymous": false,
      "inputs": [
        {
          "indexed": true,
          "internalType": "address",
          "name": "_from",
          "type": "address"
        },
        {
          "indexed": true,
          "internalType": "address",
          "name": "_to",
          "type": "address"
        },
        {
          "indexed": false,
          "internalType": "uint256",
          "name": "_value",
          "type": "uint256"
        }
      ],
      "name": "Transfer",
      "type": "event"
    },
    {
      "inputs": [],
      "name": "_decimals",
      "outputs": [
        {
          "internalType": "uint8",
          "name": "",
          "type": "uint8"
        }
      ],
      "stateMutability": "view",
      "type": "function"
    },
    {
      "inputs": [],
      "name": "_minter",
      "outputs": [
        {
          "internalType": "address",
          "name": "",
          "type": "address"
        }
      ],
      "stateMutability": "view",
      "type": "function"
    },
    {
      "inputs": [],
      "name": "_name",
      "outputs": [
        {
          "internalType": "string",
          "name": "",
          "type": "string"
        }
      ],
      "stateMutability": "view",
      "type": "function"
    },
    {
      "inputs": [],
      "name": "_stakedReward",
      "outputs": [
        {
          "internalType": "uint256",
          "name": "",
          "type": "uint256"
        }
      ],
      "stateMutability": "view",
      "type": "function"
    },
    {
      "inputs": [],
      "name": "_stakedToken",
      "outputs": [
        {
          "internalType": "uint256",
          "name": "",
          "type": "uint256"
        }
      ],
      "stateMutability": "view",
      "type": "function"
    },
    {
      "inputs": [],
      "name": "_symbol",
      "outputs": [
        {
          "internalType": "string",
          "name": "",
          "type": "string"
        }
      ],
      "stateMutability": "view",
      "type": "function"
    },
    {
      "inputs": [],
      "name": "_tokenPriceInEther",
      "outputs": [
        {
          "internalType": "uint256",
          "name": "",
          "type": "uint256"
        }
      ],
      "stateMutability": "view",
      "type": "function"
    },
    {
      "inputs": [],
      "name": "_totalSupply",
      "outputs": [
        {
          "internalType": "uint256",
          "name": "",
          "type": "uint256"
        }
      ],
      "stateMutability": "view",
      "type": "function"
    },
    {
      "inputs": [],
      "name": "acceptOwnership",
      "outputs": [],
      "stateMutability": "nonpayable",
      "type": "function"
    },
    {
      "inputs": [
        {
          "internalType": "address",
          "name": "_owner",
          "type": "address"
        },
        {
          "internalType": "address",
          "name": "_spender",
          "type": "address"
        }
      ],
      "name": "allowance",
      "outputs": [
        {
          "internalType": "uint256",
          "name": "",
          "type": "uint256"
        }
      ],
      "stateMutability": "view",
      "type": "function"
    },
    {
      "inputs": [
        {
          "internalType": "address",
          "name": "_spender",
          "type": "address"
        },
        {
          "internalType": "uint256",
          "name": "_amount",
          "type": "uint256"
        }
      ],
      "name": "approve",
      "outputs": [
        {
          "internalType": "bool",
          "name": "",
          "type": "bool"
        }
      ],
      "stateMutability": "nonpayable",
      "type": "function"
    },
    {
      "inputs": [
        {
          "internalType": "address",
          "name": "_owner",
          "type": "address"
        }
      ],
      "name": "balanceOf",
      "outputs": [
        {
          "internalType": "uint256",
          "name": "balance",
          "type": "uint256"
        }
      ],
      "stateMutability": "view",
      "type": "function"
    },
    {
      "inputs": [
        {
          "internalType": "address",
          "name": "receiver",
          "type": "address"
        }
      ],
      "name": "buyToken",
      "outputs": [],
      "stateMutability": "payable",
      "type": "function"
    },
    {
      "inputs": [],
      "name": "claimReward",
      "outputs": [
        {
          "internalType": "bool",
          "name": "successOrfailure",
          "type": "bool"
        }
      ],
      "stateMutability": "nonpayable",
      "type": "function"
    },
    {
      "inputs": [],
      "name": "currentTime",
      "outputs": [
        {
          "internalType": "uint256",
          "name": "",
          "type": "uint256"
        }
      ],
      "stateMutability": "view",
      "type": "function"
    },
    {
      "inputs": [],
      "name": "decimals",
      "outputs": [
        {
          "internalType": "uint8",
          "name": "",
          "type": "uint8"
        }
      ],
      "stateMutability": "view",
      "type": "function"
    },
    {
      "inputs": [
        {
          "internalType": "address",
          "name": "spender",
          "type": "address"
        },
        {
          "internalType": "uint256",
          "name": "subtractedValue",
          "type": "uint256"
        }
      ],
      "name": "decreaseAllowance",
      "outputs": [
        {
          "internalType": "bool",
          "name": "",
          "type": "bool"
        }
      ],
      "stateMutability": "nonpayable",
      "type": "function"
    },
    {
      "inputs": [
        {
          "internalType": "address",
          "name": "spender",
          "type": "address"
        },
        {
          "internalType": "uint256",
          "name": "addedValue",
          "type": "uint256"
        }
      ],
      "name": "increaseAllowance",
      "outputs": [
        {
          "internalType": "bool",
          "name": "",
          "type": "bool"
        }
      ],
      "stateMutability": "nonpayable",
      "type": "function"
    },
    {
      "inputs": [],
      "name": "lockedCoin",
      "outputs": [
        {
          "internalType": "uint256",
          "name": "",
          "type": "uint256"
        }
      ],
      "stateMutability": "view",
      "type": "function"
    },
    {
      "inputs": [
        {
          "internalType": "address",
          "name": "to",
          "type": "address"
        },
        {
          "internalType": "uint256",
          "name": "amount",
          "type": "uint256"
        }
      ],
      "name": "mint",
      "outputs": [],
      "stateMutability": "nonpayable",
      "type": "function"
    },
    {
      "inputs": [
        {
          "internalType": "uint256",
          "name": "_tokenPrice",
          "type": "uint256"
        }
      ],
      "name": "modifyTokenBuyPrice",
      "outputs": [],
      "stateMutability": "nonpayable",
      "type": "function"
    },
    {
      "inputs": [],
      "name": "name",
      "outputs": [
        {
          "internalType": "string",
          "name": "",
          "type": "string"
        }
      ],
      "stateMutability": "view",
      "type": "function"
    },
    {
      "inputs": [],
      "name": "newOwner",
      "outputs": [
        {
          "internalType": "address",
          "name": "",
          "type": "address"
        }
      ],
      "stateMutability": "view",
      "type": "function"
    },
    {
      "inputs": [],
      "name": "owner",
      "outputs": [
        {
          "internalType": "address",
          "name": "",
          "type": "address"
        }
      ],
      "stateMutability": "view",
      "type": "function"
    },
    {
      "inputs": [],
      "name": "spendable",
      "outputs": [
        {
          "internalType": "uint256",
          "name": "",
          "type": "uint256"
        }
      ],
      "stateMutability": "view",
      "type": "function"
    },
    {
      "inputs": [
        {
          "internalType": "uint256",
          "name": "_amount",
          "type": "uint256"
        }
      ],
      "name": "stake",
      "outputs": [
        {
          "internalType": "bool",
          "name": "successOrfailure",
          "type": "bool"
        }
      ],
      "stateMutability": "nonpayable",
      "type": "function"
    },
    {
      "inputs": [],
      "name": "symbol",
      "outputs": [
        {
          "internalType": "string",
          "name": "",
          "type": "string"
        }
      ],
      "stateMutability": "view",
      "type": "function"
    },
    {
      "inputs": [],
      "name": "totalSupply",
      "outputs": [
        {
          "internalType": "uint256",
          "name": "",
          "type": "uint256"
        }
      ],
      "stateMutability": "view",
      "type": "function"
    },
    {
      "inputs": [
        {
          "internalType": "address",
          "name": "to",
          "type": "address"
        },
        {
          "internalType": "uint256",
          "name": "_amount",
          "type": "uint256"
        }
      ],
      "name": "transfer",
      "outputs": [
        {
          "internalType": "bool",
          "name": "",
          "type": "bool"
        }
      ],
      "stateMutability": "nonpayable",
      "type": "function"
    },
    {
      "inputs": [
        {
          "internalType": "address",
          "name": "from",
          "type": "address"
        },
        {
          "internalType": "address",
          "name": "to",
          "type": "address"
        },
        {
          "internalType": "uint256",
          "name": "amount",
          "type": "uint256"
        }
      ],
      "name": "transferFrom",
      "outputs": [
        {
          "internalType": "bool",
          "name": "",
          "type": "bool"
        }
      ],
      "stateMutability": "nonpayable",
      "type": "function"
    },
    {
      "inputs": [
        {
          "internalType": "address",
          "name": "_to",
          "type": "address"
        }
      ],
      "name": "transferOwnership",
      "outputs": [],
      "stateMutability": "nonpayable",
      "type": "function"
    },
    {
      "inputs": [
        {
          "internalType": "uint256",
          "name": "_amount",
          "type": "uint256"
        }
      ],
      "name": "unstake",
      "outputs": [
        {
          "internalType": "bool",
          "name": "successOrfailure",
          "type": "bool"
        }
      ],
      "stateMutability": "nonpayable",
      "type": "function"
    }
  ],
  "bytecode": "0x60806040523480156200001157600080fd5b50336000806101000a81548173ffffffffffffffffffffffffffffffffffffffff021916908373ffffffffffffffffffffffffffffffffffffffff1602179055506040518060400160405280600981526020017f53616d20546f6b656e0000000000000000000000000000000000000000000000815250600390805190602001906200009f929190620003e4565b506040518060400160405280600381526020017f53544b000000000000000000000000000000000000000000000000000000000081525060029080519060200190620000ed929190620003e4565b506012600460006101000a81548160ff021916908360ff16021790555033600660006101000a81548173ffffffffffffffffffffffffffffffffffffffff021916908373ffffffffffffffffffffffffffffffffffffffff160217905550600a600781905550620001b3600660009054906101000a900473ffffffffffffffffffffffffffffffffffffffff16600460009054906101000a900460ff16600a6200019891906200061d565b6103e8620001a791906200075a565b620001b960201b60201c565b620008c5565b3373ffffffffffffffffffffffffffffffffffffffff1660008054906101000a900473ffffffffffffffffffffffffffffffffffffffff1673ffffffffffffffffffffffffffffffffffffffff16146200024a576040517f08c379a00000000000000000000000000000000000000000000000000000000081526004016200024190620004f3565b60405180910390fd5b6200025c82826200026060201b60201c565b5050565b600073ffffffffffffffffffffffffffffffffffffffff168273ffffffffffffffffffffffffffffffffffffffff161415620002d3576040517f08c379a0000000000000000000000000000000000000000000000000000000008152600401620002ca9062000515565b60405180910390fd5b620002e760008383620003da60201b60201c565b8060056000828254620002fb919062000565565b9250508190555080600a60008473ffffffffffffffffffffffffffffffffffffffff1673ffffffffffffffffffffffffffffffffffffffff168152602001908152602001600020600082825462000353919062000565565b925050819055508173ffffffffffffffffffffffffffffffffffffffff16600073ffffffffffffffffffffffffffffffffffffffff167fddf252ad1be2c89b69c2b068fc378daa952ba7f163c4a11628f55a4df523b3ef83604051620003ba919062000537565b60405180910390a3620003d660008383620003df60201b60201c565b5050565b505050565b505050565b828054620003f290620007d2565b90600052602060002090601f01602090048101928262000416576000855562000462565b82601f106200043157805160ff191683800117855562000462565b8280016001018555821562000462579182015b828111156200046157825182559160200191906001019062000444565b5b50905062000471919062000475565b5090565b5b808211156200049057600081600090555060010162000476565b5090565b6000620004a360208362000554565b9150620004b08262000873565b602082019050919050565b6000620004ca601f8362000554565b9150620004d7826200089c565b602082019050919050565b620004ed81620007bb565b82525050565b600060208201905081810360008301526200050e8162000494565b9050919050565b600060208201905081810360008301526200053081620004bb565b9050919050565b60006020820190506200054e6000830184620004e2565b92915050565b600082825260208201905092915050565b60006200057282620007bb565b91506200057f83620007bb565b9250827fffffffffffffffffffffffffffffffffffffffffffffffffffffffffffffffff03821115620005b757620005b662000808565b5b828201905092915050565b6000808291508390505b60018511156200061457808604811115620005ec57620005eb62000808565b5b6001851615620005fc5780820291505b80810290506200060c8562000866565b9450620005cc565b94509492505050565b60006200062a82620007bb565b91506200063783620007c5565b9250620006667fffffffffffffffffffffffffffffffffffffffffffffffffffffffffffffffff84846200066e565b905092915050565b60008262000680576001905062000753565b8162000690576000905062000753565b8160018114620006a95760028114620006b457620006ea565b600191505062000753565b60ff841115620006c957620006c862000808565b5b8360020a915084821115620006e357620006e262000808565b5b5062000753565b5060208310610133831016604e8410600b8410161715620007245782820a9050838111156200071e576200071d62000808565b5b62000753565b620007338484846001620005c2565b925090508184048111156200074d576200074c62000808565b5b81810290505b9392505050565b60006200076782620007bb565b91506200077483620007bb565b9250817fffffffffffffffffffffffffffffffffffffffffffffffffffffffffffffffff0483118215151615620007b057620007af62000808565b5b828202905092915050565b6000819050919050565b600060ff82169050919050565b60006002820490506001821680620007eb57607f821691505b6020821081141562000802576200080162000837565b5b50919050565b7f4e487b7100000000000000000000000000000000000000000000000000000000600052601160045260246000fd5b7f4e487b7100000000000000000000000000000000000000000000000000000000600052602260045260246000fd5b60008160011c9050919050565b7f4f776e61626c653a2063616c6c6572206973206e6f7420746865206f776e6572600082015250565b7f45524332303a206d696e7420746f20746865207a65726f206164647265737300600082015250565b612d9a80620008d56000396000f3fe6080604052600436106101e35760003560e01c80637e72fb5211610102578063b88a802f11610095578063d4ee1d9011610064578063d4ee1d9014610705578063dd62ed3e14610730578063e6f124c21461076d578063f2fde38b14610798576101e3565b8063b88a802f14610659578063c92b4b5a14610684578063d18e81b3146106af578063d28d8852146106da576101e3565b8063a457c2d7116100d1578063a457c2d714610577578063a694fc3a146105b4578063a9059cbb146105f1578063b09f12661461062e576101e3565b80637e72fb52146104dc578063834dc984146104f85780638da5cb5b1461052157806395d89b411461054c576101e3565b80633eaaf86b1161017a5780636c67a279116101495780636c67a2791461043257806370a082311461045d578063797c22ec1461049a57806379ba5097146104c5576101e3565b80633eaaf86b1461038857806340c10f19146103b3578063578ec33f146103dc578063606f3f3114610407576101e3565b80632e17de78116101b65780632e17de78146102b8578063313ce567146102f557806332424aa314610320578063395093511461034b576101e3565b806306fdde03146101e8578063095ea7b31461021357806318160ddd1461025057806323b872dd1461027b575b600080fd5b3480156101f457600080fd5b506101fd6107c1565b60405161020a919061231a565b60405180910390f35b34801561021f57600080fd5b5061023a60048036038101906102359190611f8c565b610853565b60405161024791906122ff565b60405180910390f35b34801561025c57600080fd5b50610265610876565b604051610272919061257c565b60405180910390f35b34801561028757600080fd5b506102a2600480360381019061029d9190611f39565b610880565b6040516102af91906122ff565b60405180910390f35b3480156102c457600080fd5b506102df60048036038101906102da9190611fcc565b6108af565b6040516102ec91906122ff565b60405180910390f35b34801561030157600080fd5b5061030a610a20565b6040516103179190612597565b60405180910390f35b34801561032c57600080fd5b50610335610a37565b6040516103429190612597565b60405180910390f35b34801561035757600080fd5b50610372600480360381019061036d9190611f8c565b610a4a565b60405161037f91906122ff565b60405180910390f35b34801561039457600080fd5b5061039d610af4565b6040516103aa919061257c565b60405180910390f35b3480156103bf57600080fd5b506103da60048036038101906103d59190611f8c565b610afa565b005b3480156103e857600080fd5b506103f1610b96565b6040516103fe91906122e4565b60405180910390f35b34801561041357600080fd5b5061041c610bbc565b604051610429919061257c565b60405180910390f35b34801561043e57600080fd5b50610447610bc2565b604051610454919061257c565b60405180910390f35b34801561046957600080fd5b50610484600480360381019061047f9190611ecc565b610bc8565b604051610491919061257c565b60405180910390f35b3480156104a657600080fd5b506104af610c11565b6040516104bc919061257c565b60405180910390f35b3480156104d157600080fd5b506104da610c17565b005b6104f660048036038101906104f19190611ecc565b610db3565b005b34801561050457600080fd5b5061051f600480360381019061051a9190611fcc565b610e92565b005b34801561052d57600080fd5b50610536610f37565b60405161054391906122e4565b60405180910390f35b34801561055857600080fd5b50610561610f5b565b60405161056e919061231a565b60405180910390f35b34801561058357600080fd5b5061059e60048036038101906105999190611f8c565b610fed565b6040516105ab91906122ff565b60405180910390f35b3480156105c057600080fd5b506105db60048036038101906105d69190611fcc565b6110d7565b6040516105e891906122ff565b60405180910390f35b3480156105fd57600080fd5b5061061860048036038101906106139190611f8c565b611292565b60405161062591906122ff565b60405180910390f35b34801561063a57600080fd5b506106436112b5565b604051610650919061231a565b60405180910390f35b34801561066557600080fd5b5061066e611343565b60405161067b91906122ff565b60405180910390f35b34801561069057600080fd5b50610699611509565b6040516106a6919061257c565b60405180910390f35b3480156106bb57600080fd5b506106c4611550565b6040516106d1919061257c565b60405180910390f35b3480156106e657600080fd5b506106ef611558565b6040516106fc919061231a565b60405180910390f35b34801561071157600080fd5b5061071a6115e6565b60405161072791906122e4565b60405180910390f35b34801561073c57600080fd5b5061075760048036038101906107529190611ef9565b61160c565b604051610764919061257c565b60405180910390f35b34801561077957600080fd5b50610782611693565b60405161078f919061257c565b60405180910390f35b3480156107a457600080fd5b506107bf60048036038101906107ba9190611ecc565b611724565b005b6060600380546107d09061276b565b80601f01602080910402602001604051908101604052809291908181526020018280546107fc9061276b565b80156108495780601f1061081e57610100808354040283529160200191610849565b820191906000526020600020905b81548152906001019060200180831161082c57829003601f168201915b5050505050905090565b60008061085e6117c0565b905061086b8185856117c8565b600191505092915050565b6000600554905090565b60008061088b6117c0565b9050610898858285611993565b6108a3858585611a1f565b60019150509392505050565b6000600c60003373ffffffffffffffffffffffffffffffffffffffff1673ffffffffffffffffffffffffffffffffffffffff16815260200190815260200160002054821115610933576040517f08c379a000000000000000000000000000000000000000000000000000000000815260040161092a906123dc565b60405180910390fd5b60008211610976576040517f08c379a000000000000000000000000000000000000000000000000000000000815260040161096d9061245c565b60405180910390fd5b61097e611550565b600b60003373ffffffffffffffffffffffffffffffffffffffff1673ffffffffffffffffffffffffffffffffffffffff1681526020019081526020016000208190555081600c60003373ffffffffffffffffffffffffffffffffffffffff1673ffffffffffffffffffffffffffffffffffffffff1681526020019081526020016000206000828254610a1091906126af565b9250508190555060019050919050565b6000600460009054906101000a900460ff16905090565b600460009054906101000a900460ff1681565b600080610a556117c0565b9050610ae9818585600d60008673ffffffffffffffffffffffffffffffffffffffff1673ffffffffffffffffffffffffffffffffffffffff16815260200190815260200160002060008973ffffffffffffffffffffffffffffffffffffffff1673ffffffffffffffffffffffffffffffffffffffff16815260200190815260200160002054610ae491906125ce565b6117c8565b600191505092915050565b60055481565b3373ffffffffffffffffffffffffffffffffffffffff1660008054906101000a900473ffffffffffffffffffffffffffffffffffffffff1673ffffffffffffffffffffffffffffffffffffffff1614610b88576040517f08c379a0000000000000000000000000000000000000000000000000000000008152600401610b7f9061243c565b60405180910390fd5b610b928282611d37565b5050565b600660009054906101000a900473ffffffffffffffffffffffffffffffffffffffff1681565b60095481565b60075481565b6000600a60008373ffffffffffffffffffffffffffffffffffffffff1673ffffffffffffffffffffffffffffffffffffffff168152602001908152602001600020549050919050565b60085481565b600160009054906101000a900473ffffffffffffffffffffffffffffffffffffffff1673ffffffffffffffffffffffffffffffffffffffff163373ffffffffffffffffffffffffffffffffffffffff1614610c7157600080fd5b600160009054906101000a900473ffffffffffffffffffffffffffffffffffffffff1673ffffffffffffffffffffffffffffffffffffffff1660008054906101000a900473ffffffffffffffffffffffffffffffffffffffff1673ffffffffffffffffffffffffffffffffffffffff167f8be0079c531659141344cd1fd0a4f28419497f9722a3daafe3b4186f6b6457e060405160405180910390a3600160009054906101000a900473ffffffffffffffffffffffffffffffffffffffff166000806101000a81548173ffffffffffffffffffffffffffffffffffffffff021916908373ffffffffffffffffffffffffffffffffffffffff1602179055506000600160006101000a81548173ffffffffffffffffffffffffffffffffffffffff021916908373ffffffffffffffffffffffffffffffffffffffff160217905550565b600060075434610dc39190612655565b905060008111610e08576040517f08c379a0000000000000000000000000000000000000000000000000000000008152600401610dff906124fc565b60405180910390fd5b600554811115610e4d576040517f08c379a0000000000000000000000000000000000000000000000000000000008152600401610e44906124bc565b60405180910390fd5b610e578282611d37565b7f4e08ba899977cf7d4c2964bce71c6b9a7ef76ee5166a4c1249a1e08016e33ef181604051610e86919061257c565b60405180910390a15050565b3373ffffffffffffffffffffffffffffffffffffffff1660008054906101000a900473ffffffffffffffffffffffffffffffffffffffff1673ffffffffffffffffffffffffffffffffffffffff1614610f20576040517f08c379a0000000000000000000000000000000000000000000000000000000008152600401610f179061243c565b60405180910390fd5b60008111610f2d57600080fd5b8060078190555050565b60008054906101000a900473ffffffffffffffffffffffffffffffffffffffff1681565b606060028054610f6a9061276b565b80601f0160208091040260200160405190810160405280929190818152602001828054610f969061276b565b8015610fe35780601f10610fb857610100808354040283529160200191610fe3565b820191906000526020600020905b815481529060010190602001808311610fc657829003601f168201915b5050505050905090565b600080610ff86117c0565b90506000600d60008373ffffffffffffffffffffffffffffffffffffffff1673ffffffffffffffffffffffffffffffffffffffff16815260200190815260200160002060008673ffffffffffffffffffffffffffffffffffffffff1673ffffffffffffffffffffffffffffffffffffffff168152602001908152602001600020549050838110156110be576040517f08c379a00000000000000000000000000000000000000000000000000000000081526004016110b59061253c565b60405180910390fd5b6110cb82868684036117c8565b60019250505092915050565b6000600c60003373ffffffffffffffffffffffffffffffffffffffff1673ffffffffffffffffffffffffffffffffffffffff16815260200190815260200160002054600a60003373ffffffffffffffffffffffffffffffffffffffff1673ffffffffffffffffffffffffffffffffffffffff1681526020019081526020016000205461116391906126af565b8211156111a5576040517f08c379a000000000000000000000000000000000000000000000000000000000815260040161119c9061241c565b60405180910390fd5b600082116111e8576040517f08c379a00000000000000000000000000000000000000000000000000000000081526004016111df9061251c565b60405180910390fd5b6111f0611550565b600b60003373ffffffffffffffffffffffffffffffffffffffff1673ffffffffffffffffffffffffffffffffffffffff1681526020019081526020016000208190555081600c60003373ffffffffffffffffffffffffffffffffffffffff1673ffffffffffffffffffffffffffffffffffffffff168152602001908152602001600020600082825461128291906125ce565b9250508190555060019050919050565b60008061129d6117c0565b90506112aa818585611a1f565b600191505092915050565b600280546112c29061276b565b80601f01602080910402602001604051908101604052809291908181526020018280546112ee9061276b565b801561133b5780601f106113105761010080835404028352916020019161133b565b820191906000526020600020905b81548152906001019060200180831161131e57829003601f168201915b505050505081565b600080600c60003373ffffffffffffffffffffffffffffffffffffffff1673ffffffffffffffffffffffffffffffffffffffff16815260200190815260200160002054116113c6576040517f08c379a00000000000000000000000000000000000000000000000000000000081526004016113bd906124dc565b60405180910390fd5b62093a80600b60003373ffffffffffffffffffffffffffffffffffffffff1673ffffffffffffffffffffffffffffffffffffffff1681526020019081526020016000205461141491906125ce565b61141c611550565b1161145c576040517f08c379a0000000000000000000000000000000000000000000000000000000008152600401611453906123fc565b60405180910390fd5b60006064600c60003373ffffffffffffffffffffffffffffffffffffffff1673ffffffffffffffffffffffffffffffffffffffff168152602001908152602001600020546114aa9190612624565b90506114b4611550565b600b60003373ffffffffffffffffffffffffffffffffffffffff1673ffffffffffffffffffffffffffffffffffffffff168152602001908152602001600020819055506115013382611d37565b600191505090565b6000600c60003373ffffffffffffffffffffffffffffffffffffffff1673ffffffffffffffffffffffffffffffffffffffff16815260200190815260200160002054905090565b600042905090565b600380546115659061276b565b80601f01602080910402602001604051908101604052809291908181526020018280546115919061276b565b80156115de5780601f106115b3576101008083540402835291602001916115de565b820191906000526020600020905b8154815290600101906020018083116115c157829003601f168201915b505050505081565b600160009054906101000a900473ffffffffffffffffffffffffffffffffffffffff1681565b6000600d60008473ffffffffffffffffffffffffffffffffffffffff1673ffffffffffffffffffffffffffffffffffffffff16815260200190815260200160002060008373ffffffffffffffffffffffffffffffffffffffff1673ffffffffffffffffffffffffffffffffffffffff16815260200190815260200160002054905092915050565b6000600c60003373ffffffffffffffffffffffffffffffffffffffff1673ffffffffffffffffffffffffffffffffffffffff16815260200190815260200160002054600a60003373ffffffffffffffffffffffffffffffffffffffff1673ffffffffffffffffffffffffffffffffffffffff1681526020019081526020016000205461171f91906126af565b905090565b60008054906101000a900473ffffffffffffffffffffffffffffffffffffffff1673ffffffffffffffffffffffffffffffffffffffff163373ffffffffffffffffffffffffffffffffffffffff161461177c57600080fd5b80600160006101000a81548173ffffffffffffffffffffffffffffffffffffffff021916908373ffffffffffffffffffffffffffffffffffffffff16021790555050565b600033905090565b600073ffffffffffffffffffffffffffffffffffffffff168373ffffffffffffffffffffffffffffffffffffffff161415611838576040517f08c379a000000000000000000000000000000000000000000000000000000000815260040161182f9061249c565b60405180910390fd5b600073ffffffffffffffffffffffffffffffffffffffff168273ffffffffffffffffffffffffffffffffffffffff1614156118a8576040517f08c379a000000000000000000000000000000000000000000000000000000000815260040161189f9061237c565b60405180910390fd5b80600d60008573ffffffffffffffffffffffffffffffffffffffff1673ffffffffffffffffffffffffffffffffffffffff16815260200190815260200160002060008473ffffffffffffffffffffffffffffffffffffffff1673ffffffffffffffffffffffffffffffffffffffff168152602001908152602001600020819055508173ffffffffffffffffffffffffffffffffffffffff168373ffffffffffffffffffffffffffffffffffffffff167f8c5be1e5ebec7d5bd14f71427d1e84f3dd0314c0f7b2291e5b200ac8c7c3b92583604051611986919061257c565b60405180910390a3505050565b600061199f848461160c565b90507fffffffffffffffffffffffffffffffffffffffffffffffffffffffffffffffff8114611a195781811015611a0b576040517f08c379a0000000000000000000000000000000000000000000000000000000008152600401611a029061239c565b60405180910390fd5b611a1884848484036117c8565b5b50505050565b600073ffffffffffffffffffffffffffffffffffffffff168373ffffffffffffffffffffffffffffffffffffffff161415611a8f576040517f08c379a0000000000000000000000000000000000000000000000000000000008152600401611a869061247c565b60405180910390fd5b600073ffffffffffffffffffffffffffffffffffffffff168273ffffffffffffffffffffffffffffffffffffffff161415611aff576040517f08c379a0000000000000000000000000000000000000000000000000000000008152600401611af69061233c565b60405180910390fd5b60008111611b42576040517f08c379a0000000000000000000000000000000000000000000000000000000008152600401611b399061235c565b60405180910390fd5b611b4d838383611e98565b6000600c60008573ffffffffffffffffffffffffffffffffffffffff1673ffffffffffffffffffffffffffffffffffffffff16815260200190815260200160002054600a60008673ffffffffffffffffffffffffffffffffffffffff1673ffffffffffffffffffffffffffffffffffffffff16815260200190815260200160002054611bd991906126af565b905081811015611c1e576040517f08c379a0000000000000000000000000000000000000000000000000000000008152600401611c15906123bc565b60405180910390fd5b81600a60008673ffffffffffffffffffffffffffffffffffffffff1673ffffffffffffffffffffffffffffffffffffffff1681526020019081526020016000206000828254039250508190555081600a60008573ffffffffffffffffffffffffffffffffffffffff1673ffffffffffffffffffffffffffffffffffffffff1681526020019081526020016000206000828254611cba91906125ce565b925050819055508273ffffffffffffffffffffffffffffffffffffffff168473ffffffffffffffffffffffffffffffffffffffff167fddf252ad1be2c89b69c2b068fc378daa952ba7f163c4a11628f55a4df523b3ef84604051611d1e919061257c565b60405180910390a3611d31848484611e9d565b50505050565b600073ffffffffffffffffffffffffffffffffffffffff168273ffffffffffffffffffffffffffffffffffffffff161415611da7576040517f08c379a0000000000000000000000000000000000000000000000000000000008152600401611d9e9061255c565b60405180910390fd5b611db360008383611e98565b8060056000828254611dc591906125ce565b9250508190555080600a60008473ffffffffffffffffffffffffffffffffffffffff1673ffffffffffffffffffffffffffffffffffffffff1681526020019081526020016000206000828254611e1b91906125ce565b925050819055508173ffffffffffffffffffffffffffffffffffffffff16600073ffffffffffffffffffffffffffffffffffffffff167fddf252ad1be2c89b69c2b068fc378daa952ba7f163c4a11628f55a4df523b3ef83604051611e80919061257c565b60405180910390a3611e9460008383611e9d565b5050565b505050565b505050565b600081359050611eb181612d36565b92915050565b600081359050611ec681612d4d565b92915050565b600060208284031215611ee257611ee161282a565b5b6000611ef084828501611ea2565b91505092915050565b60008060408385031215611f1057611f0f61282a565b5b6000611f1e85828601611ea2565b9250506020611f2f85828601611ea2565b9150509250929050565b600080600060608486031215611f5257611f5161282a565b5b6000611f6086828701611ea2565b9350506020611f7186828701611ea2565b9250506040611f8286828701611eb7565b9150509250925092565b60008060408385031215611fa357611fa261282a565b5b6000611fb185828601611ea2565b9250506020611fc285828601611eb7565b9150509250929050565b600060208284031215611fe257611fe161282a565b5b6000611ff084828501611eb7565b91505092915050565b612002816126e3565b82525050565b612011816126f5565b82525050565b6000612022826125b2565b61202c81856125bd565b935061203c818560208601612738565b6120458161282f565b840191505092915050565b600061205d6023836125bd565b915061206882612840565b604082019050919050565b60006120806024836125bd565b915061208b8261288f565b604082019050919050565b60006120a36022836125bd565b91506120ae826128de565b604082019050919050565b60006120c6601d836125bd565b91506120d18261292d565b602082019050919050565b60006120e96026836125bd565b91506120f482612956565b604082019050919050565b600061210c6045836125bd565b9150612117826129a5565b606082019050919050565b600061212f6021836125bd565b915061213a82612a1a565b604082019050919050565b60006121526058836125bd565b915061215d82612a69565b606082019050919050565b60006121756020836125bd565b915061218082612ade565b602082019050919050565b60006121986023836125bd565b91506121a382612b07565b604082019050919050565b60006121bb6025836125bd565b91506121c682612b56565b604082019050919050565b60006121de6024836125bd565b91506121e982612ba5565b604082019050919050565b60006122016020836125bd565b915061220c82612bf4565b602082019050919050565b60006122246018836125bd565b915061222f82612c1d565b602082019050919050565b6000612247601b836125bd565b915061225282612c46565b602082019050919050565b600061226a6021836125bd565b915061227582612c6f565b604082019050919050565b600061228d6025836125bd565b915061229882612cbe565b604082019050919050565b60006122b0601f836125bd565b91506122bb82612d0d565b602082019050919050565b6122cf81612721565b82525050565b6122de8161272b565b82525050565b60006020820190506122f96000830184611ff9565b92915050565b60006020820190506123146000830184612008565b92915050565b600060208201905081810360008301526123348184612017565b905092915050565b6000602082019050818103600083015261235581612050565b9050919050565b6000602082019050818103600083015261237581612073565b9050919050565b6000602082019050818103600083015261239581612096565b9050919050565b600060208201905081810360008301526123b5816120b9565b9050919050565b600060208201905081810360008301526123d5816120dc565b9050919050565b600060208201905081810360008301526123f5816120ff565b9050919050565b6000602082019050818103600083015261241581612122565b9050919050565b6000602082019050818103600083015261243581612145565b9050919050565b6000602082019050818103600083015261245581612168565b9050919050565b600060208201905081810360008301526124758161218b565b9050919050565b60006020820190508181036000830152612495816121ae565b9050919050565b600060208201905081810360008301526124b5816121d1565b9050919050565b600060208201905081810360008301526124d5816121f4565b9050919050565b600060208201905081810360008301526124f581612217565b9050919050565b600060208201905081810360008301526125158161223a565b9050919050565b600060208201905081810360008301526125358161225d565b9050919050565b6000602082019050818103600083015261255581612280565b9050919050565b60006020820190508181036000830152612575816122a3565b9050919050565b600060208201905061259160008301846122c6565b92915050565b60006020820190506125ac60008301846122d5565b92915050565b600081519050919050565b600082825260208201905092915050565b60006125d982612721565b91506125e483612721565b9250827fffffffffffffffffffffffffffffffffffffffffffffffffffffffffffffffff038211156126195761261861279d565b5b828201905092915050565b600061262f82612721565b915061263a83612721565b92508261264a576126496127cc565b5b828204905092915050565b600061266082612721565b915061266b83612721565b9250817fffffffffffffffffffffffffffffffffffffffffffffffffffffffffffffffff04831182151516156126a4576126a361279d565b5b828202905092915050565b60006126ba82612721565b91506126c583612721565b9250828210156126d8576126d761279d565b5b828203905092915050565b60006126ee82612701565b9050919050565b60008115159050919050565b600073ffffffffffffffffffffffffffffffffffffffff82169050919050565b6000819050919050565b600060ff82169050919050565b60005b8381101561275657808201518184015260208101905061273b565b83811115612765576000848401525b50505050565b6000600282049050600182168061278357607f821691505b60208210811415612797576127966127fb565b5b50919050565b7f4e487b7100000000000000000000000000000000000000000000000000000000600052601160045260246000fd5b7f4e487b7100000000000000000000000000000000000000000000000000000000600052601260045260246000fd5b7f4e487b7100000000000000000000000000000000000000000000000000000000600052602260045260246000fd5b600080fd5b6000601f19601f8301169050919050565b7f45524332303a207472616e7366657220746f20746865207a65726f206164647260008201527f6573730000000000000000000000000000000000000000000000000000000000602082015250565b7f45524332303a20616d6f756e74206d757374206265206772656174657220746860008201527f616e203000000000000000000000000000000000000000000000000000000000602082015250565b7f45524332303a20617070726f766520746f20746865207a65726f20616464726560008201527f7373000000000000000000000000000000000000000000000000000000000000602082015250565b7f45524332303a20696e73756666696369656e7420616c6c6f77616e6365000000600082015250565b7f45524332303a207472616e7366657220616d6f756e742065786365656473206260008201527f616c616e63650000000000000000000000000000000000000000000000000000602082015250565b7f596f752068617665206e6f207374616b656420746f6b656e206f7220756e737460008201527f616b6520616d6f756e742069732067726561746572207468616e20746865207360208201527f74616b6564000000000000000000000000000000000000000000000000000000604082015250565b7f72657761726420636c61696d696e67206973206f6e636520696e20612077656560008201527f6b00000000000000000000000000000000000000000000000000000000000000602082015250565b7f596f75722062616c616e636520697320746f206c6f7720746f20706572666f7260008201527f6d2074686973207472616e73616374696f6e2c20706c6561736520627579207360208201527f6f6d6520746f6b656e7320616e642074727920616761696e0000000000000000604082015250565b7f4f776e61626c653a2063616c6c6572206973206e6f7420746865206f776e6572600082015250565b7f506c6561736520756e5374616b652076616c756520677265617465722074686160008201527f6e20300000000000000000000000000000000000000000000000000000000000602082015250565b7f45524332303a207472616e736665722066726f6d20746865207a65726f20616460008201527f6472657373000000000000000000000000000000000000000000000000000000602082015250565b7f45524332303a20617070726f76652066726f6d20746865207a65726f2061646460008201527f7265737300000000000000000000000000000000000000000000000000000000602082015250565b7f4e6f7420656e6f75676820746f6b656e7320696e207468652072657365727665600082015250565b7f596f752068617665206e6f207374616b656420546f6b656e0000000000000000600082015250565b7f596f75206e65656420746f2073656e6420736f6d652065746865720000000000600082015250565b7f506c65617365205374616b652076616c75652067726561746572207468616e2060008201527f3000000000000000000000000000000000000000000000000000000000000000602082015250565b7f45524332303a2064656372656173656420616c6c6f77616e63652062656c6f7760008201527f207a65726f000000000000000000000000000000000000000000000000000000602082015250565b7f45524332303a206d696e7420746f20746865207a65726f206164647265737300600082015250565b612d3f816126e3565b8114612d4a57600080fd5b50565b612d5681612721565b8114612d6157600080fd5b5056fea2646970667358221220f55b621ffa43ed5d7d32e93b72fcc9123d3789c6f8be9cd01588dc2eee77dd1164736f6c63430008060033",
  "linkReferences": {},
  "deployedLinkReferences": {}
}